:100000000C94AD000C940E060C943B060C94D50099
:100010000C94D5000C94D5000C94D5000C94D5000C
:100020000C94D5000C94D5000C94D5000C94D500FC
:100030000C94D5000C94D5000C94D5000C94D500EC
:100040000C9400070C94D5000C94E90A0C942C0B2A
:100050000C94D5000C94D5000C94D5000C94D500CC
:100060000C94D5000C94D5005803790379038C02C5
:1000700077036A03790379033402790379037903F7
:10008000790379037903F20279033B0361034403A3
:1000900079037903790379034F03790379037903AA
:1000A00079037903790379035803790379038C027F
:1000B00077036A03790379033402790379037903B7
:1000C000790379037903F20279033B036103440363
:1000D00079037903790379034F030143020145034F
:1000E00002410102440102450303410103440103AB
:1000F0004302018B030200040332040000000700E6
:1001000002010000030406000000000000000001DE
:10011000020408102040800102040810200102049B
:10012000081020040404040404040402020202026D
:100130000203030303030300000000230026002939
:100140000000000000250028002B00000000002413
:100150000027002A0000EB01E80B11241FBECFEF9F
:10016000D8E0DEBFCDBF11E0A0E0B1E0E0E2FDE10C
:1001700002C005900D92A636B107D9F726E0A6E693
:10018000B1E001C01D92AA34B207E1F711E0CAE55F
:10019000D1E004C02297FE010E94700EC635D1073F
:1001A000C9F70E9420090C948E0E0C9400008091D7
:1001B0008E0190918F01A0919001B09191010196D3
:1001C000A11DB11D80938E0190938F01A09390018A
:1001D000B0939101089580918A0190918B01A09133
:1001E0008C01B0918D010196A11DB11D80938A01F2
:1001F00090938B01A0938C01B0938D0108958F9201
:100200009F92AF92BF92CF92DF92EF92FF920F93A5
:100210001F93CF93DF938AE1C82E81E0D82E61E04F
:10022000F60180810E94910698E1E92E91E0F92E75
:1002300061E0F70180810E94910606E111E061E032
:10024000F80180810E949106C4E1D1E061E08881DB
:100250000E94910622E1822E21E0922E61E0F401BB
:1002600080810E94910630E1A32E31E0B32E61E03F
:10027000F50180810E94910640E855E260E070E05F
:1002800080EA95E00E94670B6CE171E080EA95E0FE
:100290000E94880963EE70E0F40180810E94E50706
:1002A00069ED70E0F50180810E94E50762E080E081
:1002B0000E94910662E081E00E94910643E050E0D6
:1002C00067ED70E080E00E94EE0542E050E06BEEEA
:1002D00070E081E00E94EE0561E0F60180810E94FD
:1002E000CA0660E0F70180810E94CA0660E0F8015A
:1002F00080810E94CA0661E088810E94CA0664E685
:1003000070E080E090E00E94790760E0F601808173
:100310000E94CA0660E0F70180810E94CA0660E080
:10032000F80180810E94CA0660E088810E94CA06A6
:10033000EE24E39403E022EF30E048E06AED70E061
:100340008AE895E00E94FC04DF91CF911F910F9104
:10035000FF90EF90DF90CF90BF90AF909F908F90E5
:1003600008958F929F92AF92BF92CF92DF92EF92B9
:10037000FF9261E070E086E791E00E94BB044B01D0
:100380005C0161E070E086E691E00E94BB046B01D5
:100390007C014AE050E0B40180EA95E00E943D0A09
:1003A00061E371E080EA95E00E946B094AE050E069
:1003B000B60180EA95E00E943D0A63E371E080EABD
:1003C00095E0FF90EF90DF90CF90BF90AF909F901F
:1003D0008F900C94880940910E0150910F0160910B
:1003E0000A0170910B0186E791E00E946F04409131
:1003F0000C0150910D01609108017091090186E690
:1004000091E00C946F048F929F92AF92BF92CF9223
:10041000DF92EF92FF92CF93DF931092890580EAEB
:1004200095E00E94570A181619060CF069C180EA77
:1004300095E00E94800A80938805C3E4D5E480910A
:1004400088058A3209F45CC1992787FD9095A92F08
:10045000B92FFC01E154F109E933F10508F049C174
:10046000EC5CFF4F0C946E0E80EA95E00E941D0933
:100470006B017C01609396017093970180939801C2
:10048000909399016091040170910501882777FD8F
:100490008095982F0E943E0D9B01AC01C701B601CB
:1004A0000E94CA0D6B017C016091000170910101F5
:1004B00080910201909103019B01AC010E943F0CCD
:1004C0004B015C016091060170910701882777FD5F
:1004D0008095982F0E943E0D9B01AC01C501B4018F
:1004E0000E94CA0D9B01AC01C701B6010E94A30C7A
:1004F0000E940B0D709387016093860180919E018D
:1005000090919F01FC01E056FE4FD083019690939D
:100510009F0180939E01A6C080EA95E00E941D097C
:100520006B017C016093920170939301809394011D
:10053000909395016091040170910501882777FDE2
:100540008095982F0E943E0D9B01AC01C701B6011A
:100550000E94CA0D6B017C01609100017091010144
:1005600080910201909103019B01AC010E943F0C1C
:100570004B015C016091060170910701882777FDAE
:100580008095982F0E943E0D9B01AC01C501B401DE
:100590000E94CA0D9B01AC01C701B6010E94A30CC9
:1005A0000E940B0D70938901609388014AE050E02E
:1005B00080EA95E00E943D0A80919E0190919F0102
:1005C000FC01E056FE4FC083019690939F018093FB
:1005D0009E0110928E0110928F0110929001109244
:1005E000910187C060E0809116010E94CA0660E018
:1005F000809114010E94CA0660E080911A010E9455
:10060000CA0660E0809118010E94CA0665E371E0A5
:1006100080EA95E00E946B096AE070E080E090E07B
:100620000E947907E0EAF1E0119285E0E432F807F0
:10063000D9F710929F0110929E0110929D01109285
:100640009C0110929B0110929A0161E48AE895E066
:100650000E94090510928E0110928F011092900154
:100660001092910110928A0110928B0110928C01CC
:1006700010928D013EC06CE371E080EA95E00E942B
:100680006B0964EB70E008C060E471E080EA95E01B
:100690000E946B0969ED70E08091100125C064E44F
:1006A00071E080EA95E00E946B096FEF70E0F4CF93
:1006B00068E471E080EA95E00E946B0964EB70E009
:1006C00011C06CE471E080EA95E00E946B0969ED6D
:1006D00070E008C060E571E080EA95E00E946B0977
:1006E0006FEF70E0809112010E94E50702C00E9446
:1006F000B10180EA95E00E94800A809388059FCE30
:10070000DF91CF91FF90EF90DF90CF90BF90AF90AF
:100710009F908F9008950E94030220919B018091E9
:100720009E0190919F01222339F010929B01FC01C0
:10073000E056FE4F23E40AC020919A01222361F083
:1007400010929A01FC01E056FE4F25E420830196A9
:1007500090939F0180939E0120919E0130919F0173
:1007600080919C0190919D0128173907B9F1409122
:100770008E0150918F0160919001709191012AE05A
:1007800030E080EA95E00E94F30964E571E080EAD8
:1007900095E00E946B0940918A0150918B01609114
:1007A0008C0170918D012AE030E080EA95E00E9492
:1007B000450AE0919C01F0919D01E056FE4F608159
:1007C0008AE895E00E94090580919C0190919D0125
:1007D000019690939D0180939C0108C010929F0107
:1007E00010929E0110929D0110929C018AE895E062
:1007F0000C9457050E948B038AE895E00C945705EA
:1008000040918E0150918F01609190017091910102
:100810008091880190918901AA2797FDA095BA2F10
:10082000481759076A077B072CF481E080939B01E6
:1008300061E00FC010929B0180EA95E00E94A00A3F
:1008400010928E0110928F011092900110929101DE
:1008500060E080911A010E94CA0660E08091180150
:100860000C94CA0640918A0150918B0160918C01D1
:1008700070918D018091860190918701AA2797FD43
:10088000A095BA2F481759076A077B0754F481E0EF
:1008900080939A0160E0809116010E94CA0661E08F
:1008A0001AC010929A0180EA95E00E94A00A63E3C0
:1008B00071E080EA95E00E94880910928A01109206
:1008C0008B0110928C0110928D0160E080911601D5
:1008D0000E94CA0660E0809114010C94CA06EF924F
:1008E000FF920F931F93CF93DF9300D0CDB7DEB766
:1008F0007C01062F142F61E0802F5A8379830E9498
:10090000910660E0812F0E949106F70100837981B2
:10091000718312835A8153830F900F90DF91CF918F
:100920001F910F91FF90EF900895CF93DF93EC010B
:1009300060E088810E94CA0682E090E00E949F07E2
:1009400061E088810E94CA068AE090E00E949F07C9
:1009500060E088810E94CA0620E432E44FE050E063
:1009600061E08A810E9469056C837D838E839F8309
:10097000DF91CF9108958F929F92AF92BF92CF92C5
:10098000DF92EF92FF920F931F93CF93DF93EC01CF
:100990008B010E949504CC80DD80EE80FF80C70132
:1009A000B6012AE330E040E050E00E944F0E4901DA
:1009B0005A01288799864A87BB86C701B60124E970
:1009C00030E040E050E00E944F0EB901CA012C8790
:1009D0007D874E879F87012B11F0B401C501DF9100
:1009E000CF911F910F91FF90EF90DF90CF90BF902C
:1009F000AF909F908F900895EF920F93FC014083EA
:100A00000183E28270876783368325830F91EF909D
:100A10000895FC01638321E024830895DC015C9147
:100A200080E090E040E04517D9F017962D913C9179
:100A30001897280F391FF90174911296EC911297AB
:100A4000E7130BC0F9013196E4916E1306C0F9016A
:100A50003296849112968C9308954F5F0396E3CF5C
:100A600080E00895DC0111969C91119720E030E020
:100A700080E08917B1F01596ED91FC911697E20F81
:100A8000F31F44912D5F3F4F12965C9112975413C0
:100A900006C0319685919491009729F402C08F5F2A
:100AA000E8CF80E00895FC01099581E00895CF9397
:100AB000DF93EC018C81882349F01C826B81CE018D
:100AC0000E940E05CE010E943205F4CFDF91CF9136
:100AD0000895CF92DF92EF92FF920F931F93CF93DF
:100AE000DF9390E0FC01E15FFE4FD491FC01ED5DEE
:100AF000FE4F7491611102C0C0E001C0CD2FDA0138
:100B0000C901BF70672F70E0660F771F695C7E4F69
:100B100000E010E09801FB01E590F490F7014081BE
:100B20004D234C131EC0680179014FEFC41AD40A3B
:100B3000E40AF40A081719072A073B0709F442C018
:100B400097018601E8CF68017901FFEFCF1ADF0A2C
:100B5000EF0AFF0A081719072A073B0799F19701BF
:100B60008601FB01E590F490F70140814D234C1381
:100B7000EACF801B910BA20BB30B20E030E0A90160
:100B8000FB01E590F490F701F080FD22FC120AC011
:100B9000281739074A075B07A9F02F5F3F4F4F4FD0
:100BA0005F4FEECFA5E1B0E00E94740E605F7F4F13
:100BB0008F4F9F4F24E096958795779567952A9557
:100BC000D1F703C060E070E0CB01DF91CF911F91BE
:100BD0000F91FF90EF90DF90CF9008958230E8F46E
:100BE000E82FF0E0EE0FFF1FED56FA4F71836083A0
:100BF000813041F0809169008C7F842B8093690063
:100C0000E89A089580916900440F551F440F551FBD
:100C1000837F842B80936900E99A08951F920F9235
:100C20000FB60F9211242F933F934F935F936F93BF
:100C30007F938F939F93AF93BF93EF93FF93809195
:100C4000930590919405892B29F0E0919305F091FB
:100C500094050995FF91EF91BF91AF919F918F916D
:100C60007F916F915F914F913F912F910F900FBEA8
:100C70000F901F9018951F920F920FB60F9211248C
:100C80002F933F934F935F936F937F938F939F9394
:100C9000AF93BF93EF93FF93809195059091960545
:100CA000892B29F0E0919505F09196050995FF9122
:100CB000EF91BF91AF919F918F917F916F915F91D4
:100CC0004F913F912F910F900FBE0F901F9018954D
:100CD000833081F028F4813099F08230A1F00895BA
:100CE0008630A9F08730B9F08430D1F4809180004B
:100CF0008F7D03C0809180008F778093800008955E
:100D000084B58F7702C084B58F7D84BD08958091AE
:100D1000B0008F7703C08091B0008F7D8093B000CA
:100D20000895CF93DF9390E0FC01E15FFE4F2491A3
:100D3000FC01ED5DFE4F8491882349F190E0880F1E
:100D4000991FFC01E55BFE4FA591B4918F5B9E4F0F
:100D5000FC01C591D4919FB7611108C0F8948C91A2
:100D6000209582238C93888182230AC0623051F4BB
:100D7000F8948C91322F309583238C938881822B29
:100D8000888304C0F8948C91822B8C939FBFDF9151
:100D9000CF9108950F931F93CF93DF931F92CDB7F9
:100DA000DEB7282F30E0F901E550FF4F8491F901BB
:100DB000E15FFE4F1491F901ED5DFE4F04910023B8
:100DC000C9F0882321F069830E9468066981E02FB9
:100DD000F0E0EE0FFF1FEF5BFE4FA591B4919FB7C0
:100DE000F8948C91611103C01095812301C0812B6F
:100DF0008C939FBF0F90DF91CF911F910F9108951A
:100E00001F920F920FB60F9211242F933F938F933F
:100E10009F93AF93BF938091980590919905A0916E
:100E20009A05B0919B053091970523E0230F2D374C
:100E300020F40196A11DB11D05C026E8230F0296DE
:100E4000A11DB11D20939705809398059093990556
:100E5000A0939A05B0939B0580919C0590919D0568
:100E6000A0919E05B0919F050196A11DB11D809393
:100E70009C0590939D05A0939E05B0939F05BF91FF
:100E8000AF919F918F913F912F910F900FBE0F9037
:100E90001F9018952FB7F894609198057091990557
:100EA00080919A0590919B052FBF08953FB7F894C4
:100EB00080919C0590919D05A0919E05B0919F0504
:100EC00026B5A89B05C02F3F19F00196A11DB11DA5
:100ED0003FBF6627782F892F9A2F620F711D811DC2
:100EE000911D42E0660F771F881F991F4A95D1F721
:100EF0000895CF92DF92EF92FF92CF93DF936B0131
:100F00007C010E945607EB01C114D104E104F104F5
:100F100079F00E9456076C1B7D0B683E7340A0F36E
:100F200081E0C81AD108E108F108C851DC4FECCFC4
:100F3000DF91CF91FF90EF90DF90CF9008950197D0
:100F4000009739F0880F991F880F991F0297019712
:100F5000F1F70895789484B5826084BD84B581608A
:100F600084BD85B5826085BD85B5816085BDEEE6B1
:100F7000F0E0808181608083E1E8F0E01082808190
:100F800082608083808181608083E0E8F0E08081FE
:100F900081608083E1EBF0E0808184608083E0EB1E
:100FA000F0E0808181608083EAE7F0E08081846006
:100FB0008083808182608083808181608083808162
:100FC000806880831092C10008951F93CF93DF93B0
:100FD000182FEB0161E00E949106209711F460E068
:100FE00004C0CF3FD10539F461E0812FDF91CF916B
:100FF0001F910C94CA06E12FF0E0E550FF4FE491F9
:10100000E330F9F048F4E130B9F0E230A1F584B50D
:10101000806284BDC8BD34C0E630E9F0E73019F124
:10102000E43049F580918000806280938000D09305
:101030008B00C0938A0024C084B5806884BDC7BD7E
:101040001FC080918000806880938000D0938900C9
:10105000C093880015C08091B00080688093B00074
:10106000C093B3000DC08091B00080628093B00047
:10107000C093B40005C0C038D1050CF0B5CFAFCFD8
:10108000DF91CF911F9108950F931F93CF93DF931B
:10109000EC010E944A07688779878A879B87E881E5
:1010A000F9810084F185E02DCE01099597FF15C0E7
:1010B0000E944A07088519852A853B85601B710BAC
:1010C000820B930B0C811D812E813F81601771076C
:1010D0008207930720F38FEF9FEFDF91CF911F914E
:1010E0000F910895CF93DF93EC01CE010E94440845
:1010F00097FD11C08D32910571F09C01205331098B
:101100002A30310540F0E881F9810680F781E02D31
:10111000CE010995EACFDF91CF9108957F928F920A
:101120009F92AF92BF92CF92DF92EF92FF920F9376
:101130001F93CF93DF93EC01762E0E947208E82F65
:1011400087FD6AC0812C912C80E8A82E8FE3B82EF1
:10115000C12CD12C760110E000E0E71579F1ED32D9
:1011600051F1EE3251F180ED8E0F8A3038F5AAE060
:10117000B0E0A70196010E94740E6B017C014E2F16
:10118000552747FD5095652F752FC40ED51EE61EB9
:10119000F71E80E3C81AD108E108F108112371F0A5
:1011A0002DEC3CEC4CEC5DE3C501B4010E94CA0D92
:1011B0004B015C0102C001E001C011E0E881F9814E
:1011C0000680F781E02DCE010995CE010E944408EA
:1011D000E82F90ED980F9A3008F4BFCF8E3209F4C3
:1011E000BCCF871509F4B9CF002341F0F094E09407
:1011F000D094C094C11CD11CE11CF11CC701B601E4
:10120000112339F00E943E0DA50194010E94CA0DE0
:1012100006C00E943E0D03C060E070E0CB01DF918C
:10122000CF911F910F91FF90EF90DF90CF90BF90E3
:10123000AF909F908F907F90089561E00C948E08FE
:101240000E94AA070E94FF00C3E2DBE00E94FA03AB
:101250002097E1F30E94230BF9CFCF92DF92EF9218
:10126000FF920F931F93CF93DF936C017A01EB01F1
:10127000E60EF71E00E010E0CE15DF0561F0699183
:10128000D601ED91FC910190F081E02DC601099508
:10129000080F191FF1CFC801DF91CF911F910F9156
:1012A000FF90EF90DF90CF9008956115710581F068
:1012B000DB010D900020E9F7AD0141505109461BBB
:1012C000570BDC01ED91FC910280F381E02D099434
:1012D00080E090E008950C945509DC01ED91FC91BB
:1012E0000190F081E02D09940F931F93CF93DF932A
:1012F000EC016DE00E946D098C016AE0CE010E9454
:101300006D09800F911FDF91CF911F910F9108956B
:101310000F931F93CF93DF93EC010E9455098C012B
:10132000CE010E947409800F911FDF91CF911F9110
:101330000F9108958F929F92AF92BF92CF92DF92BA
:10134000EF92FF920F931F93CF93DF93CDB7DEB74A
:10135000A1970FB6F894DEBF0FBECDBF7C01C42E9F
:10136000E52FCB01D22E19A221E02D1510F02AE095
:10137000D22E8E010F5D1F4F8D2C912CA12CB12CE4
:101380006C2D7E2FA50194010E942D0E8C2DD29ED6
:1013900080191124015011098A3014F4805D01C0B4
:1013A000895CF8018083211531054105510521F043
:1013B000C22EE32FCA01E4CFB801C7010E9455092C
:1013C000A1960FB6F894DEBF0FBECDBFDF91CF91CF
:1013D0001F910F91FF90EF90DF90CF90BF90AF9053
:1013E0009F908F900895CF92DF92EF92FF920F938C
:1013F0001F93CF93DF93EC016A017B012115310527
:1014000079F4E881F9810190F081E02D642FDF917A
:10141000CF911F910F91FF90EF90DF90CF900994A3
:101420002A303105E9F477FF1AC06DE20E946D0998
:101430008C0144275527BA014C195D096E097F09B3
:101440002AE0CE010E949A09800F911FDF91CF916F
:101450001F910F91FF90EF90DF90CF9008952AE0B9
:10146000B701A601CE01DF91CF911F910F91FF909F
:10147000EF90DF90CF900C949A099A01AB01662708
:1014800057FD6095762F0C94F3090F931F93CF931C
:10149000DF93EC010E94F3098C01CE010E947409D4
:1014A000800F911FDF91CF911F910F910895FC0143
:1014B00024853585F901E05CFF4F8081918132966A
:1014C00020813181821B930B8F7399270895FC0132
:1014D00084859585FC01E05CFF4F40815181329607
:1014E000208131814217530741F00190F081E02DB6
:1014F000E80FF91F808190E008958FEF9FEF089526
:10150000FC0184859585FC01E05CFF4F40815181A1
:101510003296208131814217530779F0A081B18141
:10152000A80FB91F8C91208131812F5F3F4F2F73FE
:1015300033273183208390E008958FEF9FEF089544
:10154000FC0181A1882329F0A489B5898C9186FFAB
:10155000FBCF11A20895CF93DF93FC012685378539
:10156000D901A05CBF4F8D919C91119701968F730B
:101570009927E901CE5BDF4F488159818417950790
:10158000D9F30D90BC91A02DA20FB31F6C93A6852B
:10159000B785A05CBF4F11969C938E93A689B7899F
:1015A0002C9181E090E0078C02C0880F991F0A946B
:1015B000E2F7282B2C9381E081A30488F589E02DA4
:1015C00080818064808381E090E0DF91CF910895F5
:1015D00008951F920F920FB60F9211242F933F93ED
:1015E0004F938F939F93EF93FF938091C00082FD61
:1015F0001CC04091C6008091460690914706019616
:101600008F739927209148063091490682179307D6
:1016100071F0E0914606F0914706EA5FF94F40838A
:10162000909347068093460602C08091C600FF91C2
:10163000EF919F918F914F913F912F910F900FBEFE
:101640000F901F90189580EA95E00E94570A892B09
:1016500011F00C94E80A08951F920F920FB60F92A2
:1016600011242F933F938F939F93EF93FF93209198
:101670000206309103068091040690910506281712
:10168000390731F48091C1008F7D8093C10014C06F
:10169000E0910406F0910506EE53FA4F2081809107
:1016A00004069091050601968F739927909305067D
:1016B000809304062093C600FF91EF919F918F9134
:1016C0003F912F910F900FBE0F901F901895CF92C2
:1016D000DF92EF92FF92CF93DF93EC016A017B01DF
:1016E000411581EE580761057105F9F0EC89FD8916
:1016F00081E090E008A002C0880F991F0A94E2F7E9
:10170000808360E079E08DE390E0A70196010E947C
:101710002D0E2150310941095109569547953795AC
:101720002795211580E1380798F0EC89FD89108212
:1017300060E874E88EE190E0A70196010E942D0E0A
:1017400021503109410951095695479537952795FB
:10175000E889F9893083EA89FB89208319A2EE8917
:10176000FF89408181E090E09C010C8C02C0220F37
:10177000331F0A94E2F7422B4083EE89FF894081B0
:101780009C010D8C02C0220F331F0A94E2F7422BFA
:101790004083EE89FF8940819C010E8C02C0220F9C
:1017A000331F0A94E2F7422B4083EE89FF892081A0
:1017B0000F8C02C0880F991F0A94E2F7809582234C
:1017C0008083DF91CF91FF90EF90DF90CF900895CD
:1017D0001092A3051092A20588EE93E0A0E0B0E07D
:1017E0008093A4059093A505A093A605B093A705A3
:1017F0008AE591E09093A1058093A00586E096E0AC
:101800009093AD058093AC0582EC95E09093AF0585
:101810008093AE0585EC90E09093B1058093B00580
:1018200084EC90E09093B3058093B20580EC90E057
:101830009093B5058093B40581EC90E09093B70543
:101840008093B60582EC90E09093B9058093B8053B
:1018500086EC90E09093BB058093BA0584E080937A
:10186000BC0583E08093BD0587E08093BE0585E0DD
:101870008093BF0581E08093C00508955058BB2731
:10188000AA270ED04DC13ED130F043D120F031F423
:101890009F3F11F41EF433C10EF4E095E7FB29C11C
:1018A000E92F4FD180F3BA176207730784079507B2
:1018B00018F071F49EF567C10EF4E0950B2EBA2F67
:1018C000A02D0B01B90190010C01CA01A001112446
:1018D000FF27591B99F0593F50F4503E68F11A16F2
:1018E000F040A22F232F342F4427585FF3CF469583
:1018F00037952795A795F0405395C9F77EF41F16A5
:10190000BA0B620B730B840BBAF09150A1F0FF0F6E
:10191000BB1F661F771F881FC2F70EC0BA0F621F5A
:10192000731F841F48F4879577956795B795F7954A
:101930009E3F08F0B3CF9395880F08F09927EE0FDC
:101940009795879508950CD0EBC0E3D040F0DAD09E
:1019500030F021F45F3F19F0CCC0511115C1CFC058
:10196000F0D098F39923C9F35523B1F3951B550B88
:10197000BB27AA2762177307840738F09F5F5F4F62
:10198000220F331F441FAA1FA9F333D00E2E3AF0A3
:10199000E0E830D091505040E695001CCAF729D0BD
:1019A000FE2F27D0660F771F881FBB1F261737070C
:1019B0004807AB07B0E809F0BB0B802DBF01FF273C
:1019C00093585F4F2AF09E3F510568F092C0DCC0EB
:1019D0005F3FECF3983EDCF3869577956795B79576
:1019E000F7959F5FC9F7880F911D9695879597F991
:1019F0000895E1E0660F771F881FBB1F621773070A
:101A00008407BA0720F0621B730B840BBA0BEE1F1E
:101A100088F7E095089504D06894B111B5C0089591
:101A200098D088F09F5790F0B92F9927B751A0F020
:101A3000D1F0660F771F881F991F1AF0BA95C9F762
:101A400012C0B13081F09FD0B1E008959CC0672FE3
:101A5000782F8827B85F39F0B93FCCF38695779512
:101A60006795B395D9F73EF49095809570956195FB
:101A70007F4F8F4F9F4F0895E89409C097FB3EF426
:101A800090958095709561957F4F8F4F9F4F9923CB
:101A9000A9F0F92F96E9BB279395F6958795779549
:101AA0006795B795F111F8CFFAF4BB0F11F460FF09
:101AB0001BC06F5F7F4F8F4F9F4F16C0882311F061
:101AC00096E911C0772321F09EE8872F762F05C075
:101AD000662371F096E8862F70E060E02AF09A9510
:101AE000660F771F881FDAF7880F9695879597F905
:101AF000089597F99F6780E870E060E008959FEF90
:101B000080EC089500240A94161617061806090694
:101B1000089500240A941216130614060506089563
:101B2000092E0394000C11F4882352F0BB0F40F4EB
:101B3000BF2B11F460FF04C06F5F7F4F8F4F9F4F2B
:101B4000089557FD9058440F551F59F05F3F71F0AD
:101B50004795880F97FB991F61F09F3F79F0879514
:101B60000895121613061406551FF2CF4695F1DF9D
:101B700008C0161617061806991FF1CF869571052D
:101B8000610508940895E894BB2766277727CB0161
:101B900097F908950BD0C4CFB5DF28F0BADF18F05D
:101BA000952309F0A6CFABCF1124EECFCADFA0F367
:101BB000959FD1F3950F50E0551F629FF001729FE2
:101BC000BB27F00DB11D639FAA27F00DB11DAA1F01
:101BD000649F6627B00DA11D661F829F2227B00D4E
:101BE000A11D621F739FB00DA11D621F839FA00DD9
:101BF000611D221F749F3327A00D611D231F849F29
:101C0000600D211D822F762F6A2F11249F5750407F
:101C10008AF0E1F088234AF0EE0FFF1FBB1F661F1A
:101C2000771F881F91505040A9F79E3F510570F0D3
:101C300060CFAACF5F3FECF3983EDCF386957795B3
:101C40006795B795F795E7959F5FC1F7FE2B880FCE
:101C5000911D9695879597F90895A1E21A2EAA1BD2
:101C6000BB1BFD010DC0AA1FBB1FEE1FFF1FA2174C
:101C7000B307E407F50720F0A21BB30BE40BF50B49
:101C8000661F771F881F991F1A9469F760957095D2
:101C9000809590959B01AC01BD01CF010895052E63
:101CA00097FB1EF400940E94660E57FD07D00E9419
:101CB0002D0E07FC03D04EF40C94660E5095409503
:101CC000309521953F4F4F4F5F4F089590958095E8
:101CD000709561957F4F8F4F9F4F0895EE0FFF1FB7
:101CE0000590F491E02D09940E947F0EA59F900D20
:101CF000B49F900DA49F800D911D11240895A29F63
:101D0000B001B39FC001A39F700D811D1124911DCF
:101D1000B29F700D811D1124911D0895F894FFCF7D
:101D2000C3F54840510003000A0008000700060000
:101D30000B0009000D000C000500040045737065E0
:101D400072616E646F20636F6D616E646F73200AE1
:101D5000007C004B00706172616461005649420072
:101D600056494D00564941005644420056444D00E4
:101D700056444100090000000000AB0A2D09570A33
:061D8000800A670AA00AB8
:00000001FF
